:020000020000FC
:100A000000EE0ABB089507B900EC06B93699FECF8F
:100A100005B108950F9301E0F6DF0ED000E0F3DF9B
:100A20003FD00F9108950F9303E0EDDF1FD002E058
:100A3000EADF50D00F910895003019F0033059F0DB
:100A400014C0009160000395009360000091600065
:100A5000083009F00AC0009160000A950093600018
:100A6000009160000F3F69F300C00895003019F055
:100A7000033059F014C000916200039500936200A6
:100A800000916200083009F00AC0009162000A95E6
:100A900000936200009162000F3F69F300C0089567
:100AA000033019F0003059F014C000916100039533
:100AB0000093610000916100083009F00AC00091C4
:100AC00061000A9500936100009161000F3F69F396
:100AD00000C00895033019F0003059F014C000919F
:100AE000630003950093630000916300083009F0F0
:100AF0000AC0009163000A950093630000916300AF
:080B00000F3F69F300C00895E6
:100C00000F934CD00F910024013051F15BD0009133
:100C10006A000130C9F09CD000916A000130A1F057
:100C2000E3D000916A00013079F031D100916A007F
:100C3000013051F08DD000916A00013029F000910F
:100C40006A00013009F029C036F000916800039570
:100C50000093680005C00091690003950093690046
:100C600014E01093650010916800109366001091D5
:100C700069001093670000270093600000936100F3
:100C8000009362000093630000936A00112712DA58
:100C90000D9313951034E1F7E4D908950F932F9332
:100CA000FEB7EDB707DA22270D91003029F0203486
:100CB0002395D1F701E001C00027359600832F91DD
:100CC0000F9108950F931F932F934F935F93552781
:100CD000F1D94EF0009160001091610021E0EDD952
:100CE0004091610006C0009162001091630022E013
:100CF000E4D9073049F00395A3953C91321721F4CC
:100D000053955430B1F719C03EF000916000109136
:100D10006100D0D9D2D906C0009162001091630061
:100D2000C9D9CBD9003059F00A95AA953C91321710
:100D300031F453955430B1F700C001E001C00027F1
:100D400000936A005F914F912F911F910F91089529
:100D50000F931F932F934F935F935527ABD94EF06B
:100D6000009160001091610021E0A7D940916100DD
:100D700008C0009162004091630022E09ED940913A
:100D80006300403059F04A9538E0A31BB0093C910C
:100D9000321721F453955430A1F71BC03EF0009157
:100DA00060001091610086D988D906C00091620068
:100DB000109163007FD981D9173069F0139508E04D
:100DC000A00FB01D0C91021731F453955430A1F7C8
:100DD00000C001E001C0002700936A005F914F91BD
:100DE0002F911F910F9108950F931F932F934F935E
:100DF0005F936F9355275ED93EF00091600010918C
:100E0000610021E05AD907C000916200109163008F
:100E100022E053D900C0103079F0073069F01A95FC
:100E2000039548E0A41BB009A3954C91421721F407
:100E30005395543081F71FC03EF00091600010912F
:100E4000610038D93AD906C0009162001091630060
:100E500031D933D9173089F0003079F013950A95DC
:100E600061F048E0A40FB01DAA954C91421729F4F7
:100E70005395543079F701E001C0002700936A00D0
:100E80006F915F914F912F911F910F9108950F9343
:100E90001F932F934F935F9355270CD93EF00091EA
:100EA00060001091610021E008D906C00091620045
:100EB0001091630022E001D9103079F0003069F020
:100EC0001A950A9548E0A41BB009AA954C914217BF
:100ED00021F45395543081F71EC03EF0009160001C
:100EE00010916100E7D8E9D806C000916200109126
:100EF0006300E0D8E2D8173081F0073071F0139525
:100F0000039548E0A40FB01DA3954C91421729F416
:100F10005395543081F701E001C0002700936A0027
:0C0F20005F914F912F911F910F91089548
:0200000004C03A
:0200040064C0D6
:100008007BC004E00EBF0FE50DBFF6D40AE005BFC4
:1000180000EC0BBF00EE01BB0FE102BB01E007BB28
:1000280011270CE010BD09B908E00AB902E00BB9C4
:1000380006E800BD78940FEF009364000027009352
:1000480068000093690000936A0006D615D029D08D
:10005800FDCF5D9BFECF0CB908950F93009164000E
:10006800F8DF00916500F5DF00916600F2DF00918E
:100078006700EFDF0F910895F8941F933EF000ECAE
:100088000BBB0FEF02BBC2D410E006C00FE702BBE8
:1000980000EE0BBBC4D411E048D0DFDF1F91789489
:1000A800089596E980E00197F1F70895B0E0A0E798
:1000B80008950F931F93A00F110F110F110FA11F78
:1000C8001F910F9108950F931F939EF00091600068
:1000D80010916100EBDFEDDF1C91113051F012300F
:1000E80041F038D011E01C9312E01FD0B6DF84D560
:1000F80068941F910F9118950F931F939EF4009188
:10010800620010916300D2DFD4DF1C91113051F0EE
:10011800123041F01FD012E01C9313E006D09DDF8F
:100128006BD5E8941F910F911895109365004EF0C8
:1001380010916000109366001091610010936700A1
:1001480008C010916200109366001091630010932C
:10015800670008950F931F931FB701E008BB8F93A3
:100168009F9380E09FE09FDF9F918F9100E008BB05
:080178001FBF1F910F910895B4
:00000001FF
