:020000020000FC
:100A000000E00ABB089507B900EC06B93699FECF9D
:100A100005B108950F9300E0F6DF0ED001E0F3DF9B
:100A20003FD00F9108950F9302E0EDDF1FD003E058
:100A3000EADF50D00F910895033019F0003059F0DB
:100A400014C0009160000395009360000091600065
:100A5000083009F00AC0009160000A950093600018
:100A6000009160000F3F69F300C00895033019F052
:100A7000003059F014C000916200039500936200A9
:100A800000916200083009F00AC0009162000A95E6
:100A900000936200009162000F3F69F300C0089567
:100AA000033019F0003059F014C000916100039533
:100AB0000093610000916100083009F00AC00091C4
:100AC00061000A9500936100009161000F3F69F396
:100AD00000C00895033019F0003059F014C000919F
:100AE000630003950093630000916300083009F0F0
:100AF0000AC0009163000A950093630000916300AF
:080B00000F3F69F300C00895E6
:0200000004C03A
:020004004FC0EB
:1000080061C004E00EBF0FE50DBFF6D40AE005BFDE
:1000180000EC0BBF0FEF02BB10BD09B908E00AB92D
:1000280006E800BD78940FD027D0FDCF5D9BFECFAA
:100038000CB908950FEFFADF012FF8DF022FF6DF72
:10004800032FF4DF08950F931F932F933F9346F0E8
:10005800DDD411272091600030916100EBDF07C0EB
:10006800DED411E02091620030916300E3DF3F911C
:100078002F911F910F9108958F939F9391E08EE197
:100088000197F1F79F918F910895B0E0A4E6089544
:10009800A00F110F110F110FB11F08950F931F9388
:1000A8002F9366F00091600010916100EEDFF0DFA1
:1000B8002C91213019F0223009F016D02F911F9180
:1000C8000F9118950F931F9366F400916200109199
:1000D8006300DBDFDDDF2C91213019F0223009F0DD
:0A00E80003D01F910F9118950895A1
:00000001FF
