:020000020000FC
:100A000000EE0ABB089507B900EC06B93699FECF8F
:100A100005B108950F9301E0F6DF0ED000E0F3DF9B
:100A20003FD00F9108950F9303E0EDDF1FD002E058
:100A3000EADF50D00F910895033019F0003059F0DB
:100A400014C0009160000395009360000091600065
:100A5000083009F00AC0009160000A950093600018
:100A6000009160000F3F69F300C00895033019F052
:100A7000003059F014C000916200039500936200A9
:100A800000916200083009F00AC0009162000A95E6
:100A900000936200009162000F3F69F300C0089567
:100AA000033019F0003059F014C000916100039533
:100AB0000093610000916100083009F00AC00091C4
:100AC00061000A9500936100009161000F3F69F396
:100AD00000C00895033019F0003059F014C000919F
:100AE000630003950093630000916300083009F0F0
:100AF0000AC0009163000A950093630000916300AF
:080B00000F3F69F300C00895E6
:100C00000F933CD00F910130D9F04BD000916A0086
:100C1000013051F08AD000916A00013029F0009132
:100C20006A00013009F029C036F000916800039590
:100C30000093680005C00091690003950093690066
:100C400014E01093650010916800109366001091F5
:100C50006900109367000027009360000093610013
:100C6000009362000093630000936A00112722DA68
:100C70000D9313951034E1F7F4D908950F932F9342
:100C8000FEB7EDB717DA0D91003029F02034239527
:100C9000D1F701E001C00027359600832F910F9115
:100CA00008950F931F932F9305DA46F0009160008B
:100CB0001091610021E001DA112708C00091620063
:100CC0001091630022E0F9D9112700C0A730A9F0E4
:100CD000A3950C91021789F413951330B9F71330CB
:100CE000C1F036F00091600010916100E6D905C0B6
:100CF0000091620010916300E0D9A03079F0AA95CC
:100D00000C91021759F413951330B9F7133009F009
:100D100005C016F001E003C002E001C00027009307
:100D20006A002F911F910F9108950F931F932F9396
:100D3000C1D946F0009160001091610021E0BDD959
:100D4000112708C0009162001091630022E0B5D91C
:100D5000112700C0B030A1F0BA950C91021781F4B0
:100D600013951330B9F71330B9F00091600010916A
:100D70006100A3D905C000916200109163009DD964
:100D8000B73079F0B3950C91021759F413951330DD
:100D9000B9F7133009F005C016F001E003C002E016
:100DA00001C0002700936A002F911F910F910895B1
:100DB0000F931F932F937ED946F0009160001091FE
:100DC000610021E07AD9112708C0009162001091DA
:100DD000630022E072D9112700C0B030A9F0BA95A3
:100DE000A3950C91021781F413951330B1F71330CA
:100DF000C1F000916000109161005FD905C00091C1
:100E000062001091630059D9B73081F0B395AA956B
:100E10000C91021759F413951330B1F7133009F000
:100E200005C016F001E003C002E001C000270093F6
:100E30006A002F911F910F9108950F931F932F9385
:100E400039D946F0009160001091610021E035D958
:100E50001127C3CF009162001091630022E02DD9C9
:100E60001127BBCFB030A9F0BA95A3950C9102170A
:100E700081F413951330B1F71330C1F00091600085
:100E8000109161001AD905C00091620010916300B1
:100E900014D9B73081F0B395AA950C91021759F483
:100EA00013951330B1F7133009F005C016F001E0C7
:100EB00003C002E001C0002700936A002F911F9138
:040EC0000F910895F1
:0200000004C03A
:0200040060C0DA
:1000080077C004E00EBF0FE50DBFF6D40AE005BFC8
:1000180000EC0BBF00EE01BB0FE102BB01E007BB28
:1000280011270CE010BD09B908E00AB902E00BB9C4
:1000380006E800BD78940FEF009364000027009352
:1000480068000093690000936A00F6D515D029D09E
:10005800FDCF5D9BFECF0CB908950F93009164000E
:10006800F8DF00916500F5DF00916600F2DF00918E
:100078006700EFDF0F910895F8941F933EF000ECAE
:100088000BBB0FEF02BBC2D410E006C00FE702BBE8
:1000980000EE0BBBC4D411E044D0DFDF1F9178948D
:1000A800089592E880E00197F1F70895B0E0ABE693
:1000B8000895A00F110F110F110FB11F08950F937D
:1000C8001F939EF00091600010916100EFDFF1DF57
:1000D8001C91113051F0123041F038D001E00C93EE
:1000E80012E01FD0BADF88D568941F910F91189538
:1000F8000F931F939EF40091620010916300D6DF66
:10010800D8DF1C91113051F0123041F01FD012E0AD
:100118000C9313E006D0A1DF6FD5E8941F910F91DF
:100128001895109365004EF01091600010936600CA
:10013800109161001093670008C01091620010933D
:100148006600109163001093670008950F931F9342
:100158001FB701E008BB8F939F9380E09FE0A3DF68
:100168009F918F9100E008BB1FBF1F910F910895C9
:00000001FF
