:020000020000FC
:1000C00000E806B900E00ABB089507B900E406B9E4
:1000D0003699FECF05B108950F9300E0F6DF0ED0FC
:1000E00001E0F3DF37D00F9108950F9302E0EDDFC9
:1000F0001BD003E0EADF44D00F910895033019F0DC
:10010000013049F010C00091600003950093600039
:10011000083009F008C0009160000A950093600063
:100120000F3F89F300C00895033019F0013049F002
:1001300010C000916200039500936200083009F03E
:1001400008C0009162000A95009362000F3F89F396
:1001500000C00895033019F0013049F010C000913B
:100160006100039500936100083009F008C0009118
:1001700061000A95009361000F3F89F300C0089564
:10018000033019F0013049F010C00091630003956D
:1001900000936300083009F008C0009163000A95DD
:0C01A000009363000F3F89F300C0089536
:0200000004C03A
:020004001DC01D
:100008001FC004E00EBF0FE50DBF56D00FE005BFBF
:1000180000EC0BBF789402D006D0FDCF16F058D074
:1000280001C05FD008958F939F9391E08EE101976F
:10003800F1F79F918F91089516F007D005D0189584
:0E00480016F404D001D0189508950895089577
:00000001FF
