:020000020000FC
:100A000000EE0ABB089507B900EC06B93699FECF8F
:100A100005B108950F9301E0F6DF0ED000E0F3DF9B
:100A20003FD00F9108950F9303E0EDDF1FD002E058
:100A3000EADF50D00F910895033019F0003059F0DB
:100A400014C0009160000395009360000091600065
:100A5000083009F00AC0009160000A950093600018
:100A6000009160000F3F69F300C00895033019F052
:100A7000003059F014C000916200039500936200A9
:100A800000916200083009F00AC0009162000A95E6
:100A900000936200009162000F3F69F300C0089567
:100AA000033019F0003059F014C000916100039533
:100AB0000093610000916100083009F00AC00091C4
:100AC00061000A9500936100009161000F3F69F396
:100AD00000C00895033019F0003059F014C000919F
:100AE000630003950093630000916300083009F0F0
:100AF0000AC0009163000A950093630000916300AF
:080B00000F3F69F300C00895E6
:100C00000F933CD00F910130D9F04BD000916A0086
:100C1000013051F08AD000916A00013029F0009132
:100C20006A00013009F029C036F000916800039590
:100C30000093680005C00091690003950093690066
:100C400014E01093650010916800109366001091F5
:100C50006900109367000027009360000093610013
:100C6000009362000093630000936A00112724DA66
:100C70000D9313951034E1F7F4D908950F932F9342
:100C8000FEB7EDB719DA0D91003029F02034239525
:100C9000D1F701E001C00027359600832F910F9115
:100CA00008950F931F932F9307DA46F00091600089
:100CB0001091610021E003DA112708C00091620061
:100CC0001091630022E0FBD9112700C0A730A9F0E2
:100CD000A3950C91021789F413951330B9F71330CB
:100CE000C1F036F00091600010916100E8D905C0B4
:100CF0000091620010916300E2D9A03079F0AA95CA
:100D00000C91021759F413951330B9F7133009F009
:100D100005C016F001E003C002E001C00027009307
:100D20006A002F911F910F9108950F931F932F9396
:100D3000C3D946F0009160001091610021E0BFD955
:100D4000112708C0009162001091630022E0B7D91A
:100D5000112700C0B030A1F0BA950C91021781F4B0
:100D600013951330B9F71330B9F00091600010916A
:100D70006100A5D905C000916200109163009FD960
:100D8000B73079F0B3950C91021759F413951330DD
:100D9000B9F7133009F005C016F001E003C002E016
:100DA00001C0002700936A002F911F910F910895B1
:0200000004C03A
:0200040062C0D8
:1000080078C004E00EBF0FE50DBFF6D40AE005BFC7
:1000180000EC0BBF00EE01BB0FE102BB01E007BB28
:1000280011270CE010BD09B908E00AB902E00BB9C4
:1000380006E800BD78940FEF009364000027009352
:1000480068000093690000936A00F6D515D02BD09C
:10005800FDCF5D9BFECF0CB908950F93009164000E
:10006800F8DF00916500F5DF00916600F2DF00918E
:100078006700EFDF0F910895F8941F934EF000EC9E
:100088000BBB0FEF02BBC2D410E04CD0E6DF08C0B8
:100098000FE702BB00EE0BBBC2D411E043D0DDDF9B
:1000A8001F91789408959CE380E00197F1F70895F3
:1000B800B0E0ABE60895A00F110F110F110FB11F9B
:1000C80008950F931F9396F00091600010916100BE
:1000D800EFDFF1DF1C91113049F0123039F037D0E1
:1000E80001E00C9312E01ED087D568941F910F9100
:1000F80018950F931F939EF400916200109163006E
:10010800D7DFD9DF1C91113051F0123041F01FD0E8
:1001180012E00C9313E006D0A0DF6ED5E8941F918F
:100128000F911895109365004EF010916000109390
:100138006600109161001093670008C0109162007A
:1001480010936600109163001093670008950F9351
:100158001F931FB701E008BB8F939F9380E09FE038
:10016800A4DF9F918F9100E008BB1FBF1F910F91E3
:020178000895E8
:00000001FF
