:020000020000FC
:100A000010E00CE010BD09B900E90AB906E800BD24
:100A100002E00BB978940895FF93EF933F932F93DF
:100A20001F930F930FB70F93F3E0E4E233270BB15B
:100A30001AB12CB12C7101F0169511700F3F29F4E9
:100A4000F3E0E4E233273093270330912703E30FE9
:100A500001933395309327030F910FBF0F911F918F
:0A0A60002F913F91EF91FF9118953F
:0200000016C028
:10002C00F5C404E00EBF0FE50DBF8AD0E3D40EEF8C
:10003C0000931E03002700931F0300271127F3E0F2
:10004C00E6E0139501931831E1F7F3E0E0E05ED0C0
:10005C0003E00093200300E00093210300932203AC
:10006C0000E10093230352D016D003D02FD039D007
:10007C00FBCF00910503043039F039D00091040313
:10008C000FB9779BFECFF5CF3BD0F3E0E0E0002734
:10009C00009305030895B3E0A6E000911F03083117
:1000AC0009F40027A00F2D91209300032D9120938C
:1000BC0001032C912093020303D000931F03089596
:1000CC001127039513951330E1F7089500911E0342
:1000DC000F3709F00894001F00931E0300930303CD
:1000EC00089500912703033009F410D0089501916D
:1000FC0000930403009105030395009305030895F1
:10010C00C49A0000C895C895C4980895B3E0A6E0B9
:10011C00D3E0C0E23881032F1127101729F0339553
:10012C00339513951017C9F7A30F55276627772713
:10013C00C3955991699179915D936D937D930895D0
:10014C0000EB07BB00E50DB900E00093200300E0D5
:10015C00009321030093220301E0009323030895ED
:00000001FF
