:020000020000FC
:100000000C94020004E00EBF0FE50DBF0E948A00B1
:100010000EEF00931E03002700931F0300271127F4
:10002000F3E0E6E0139501931831E1F7F3E0E0E047
:1000300057D003E00093200300E0009321030093D6
:10004000220300E1009323034BD015D002D02ED021
:10005000FCCF00910503043039F033D00091040344
:100060000FB9779BFECFF5CF35D0F3E0E0E0002766
:10007000009305030895B3E0A6E000911F03083143
:1000800009F40027A00F2D91209300032D912093B8
:1000900001032C912093020303D000931F030895C2
:1000A0001127039513951330E1F7089500911E036E
:1000B0000F3709F00894001F00931E0300930303F9
:1000C00008950191009304030091050303950093A3
:1000D00005030895C49A0000C895C895C49808956A
:1000E000B3E0A6E0D3E0C0E23881032F1127101758
:1000F00029F03395339513951017C9F7A30F55279A
:1001000066277727C3955991699179915D936D938E
:100110007D93089500EB07BB00E50DB900E0009367
:10012000200300E0009321030093220301E00093E9
:040130002303089508
:00000001FF
