:020000020000FC
:100000000C94020004E00EBF0FE50DBF0E946900D2
:100010000EEF00931E03002700931F0300271127F4
:10002000F3E0E6E0139501931831E1F7F3E0E0E047
:100030004BD015D002D02ED0FBCF00910503043059
:1000400039F033D0009104030FB9779BFECFF5CF81
:1000500035D0F3E0E0E00027009305030895B3E016
:10006000A6E000911F03083109F40027A00F2D918D
:10007000209300032D91209301032C9120930203E0
:1000800003D000931F030895112703951395133090
:10009000E1F7089500911E030F3709F00894001F3F
:1000A00000931E030093030308950191009304033A
:1000B000009105030395009305030895C49A000079
:1000C000C895C895C4980895B3E0A6E00FEF0C93C7
:0C00D000089500EB07BB00E50DB9089592
:00000001FF
