:020000020000FC
:100A000010E00CE010BD09B900E90AB906E800BD24
:100A100002E00BB900270093230378940895FF9315
:100A2000EF933F932F931F930F930FB70F9300E80C
:100A30000BBB0BB11AB12CB10C7109F014C0169597
:100A4000117030912303333019F43327309323038B
:100A50002F3F49F0F3E0E0E230912303E30F2083DE
:100A600033953093230300270BBB0F910FBF0F91DA
:0C0A70001F912F913F91EF91FF9118957D
:020000001BC023
:10002C00F8C40102040810204080000004E00EBF58
:10003C000FE50DBF43D1DED446D119D004D032D058
:10004C003CD011D1FACFF3E0E0E00091050304308D
:10005C0039F0A9D0009104030FB9779BFECFF5CFEF
:10006C00ABD0F3E0E0E00027009305030895F5D052
:10007C0000911F03083109F40027A00F2D91209344
:10008C0000032D91209301032C912093020313E084
:10009C00010F00931F030895112703951395133037
:1000AC00E1F7089500911E030F3709F00894001F23
:1000BC0000931E0300930303089500912303033060
:1000CC0009F401D0089500912003003049F001306B
:1000DC0049F0023059F0033039F0043049F00AC0CD
:1000EC000AD008C01FD006C034D004C047D002C00C
:1000FC00EAD000C0089588D0BBD0CDD000912103A8
:10010C0000932403009329030091220300932503F9
:10011C0000932A0302E00093270301E000932603D7
:10012C0073D0089571D0A4D0B6D000912103009360
:10013C00240300932B0300912203009325030093C7
:10014C002C0300E00093270301E0009326035CD00E
:10015C000895009121030093240300932903009137
:10016C0022030093250300932A0300E00093270346
:10017C0001E00093260348D08ED00895009121030E
:10018C000093240300932903009122030093250379
:10019C0000932A0302E00093270301E00093260357
:1001AC0033D079D008950191009304030091050395
:1001BC000395009305030895C49A0000C895C8954B
:1001CC00C49808952F931F930F9300272091240315
:1001DC0013E0203021F00395A10F0217E1F70F91E6
:1001EC001F912F9108952F931F930F930027209108
:1001FC00240313E0203099F30395C10F0217E1F7A4
:10020C000F911F912F9108951FD027D0DBDF009104
:10021C002603003049F010912703A10F0C91109187
:10022C002803012B0C9308C010912703A10F0C91EC
:10023C001091280301270C9308951127002703958B
:10024C0013951330E1F7089500912503F0E0EEE2E9
:10025C00E00F0491009328030895B3E0A6E00895FD
:10026C00D3E0CDE2089570E082E30197F1F70895B1
:10027C00BF93AF93DF93CF93F0DFF2DFA3DFB3DF56
:10028C0009910D9309910D9308810C93CF91DF91F6
:10029C00AF91BF910895BF93AF93DF93CF93DDDF01
:1002AC00DFDF90DFA0DF0D9109930D9109930C9185
:1002BC000883CF91DF91AF91BF91089500EB07BBFD
:1002CC0000E50DB908950EEF00931E03002700936F
:1002DC001F0300271127C1DF13950D931831E1F788
:1002EC0000270093260300271127BADF13950993E3
:0C02FC001831E1F7002700932603089555
:00000001FF
