:020000020000FC
:100A000010E00CE010BD09B900E90AB906E800BD24
:100A100002E00BB900270093270378940895FF9311
:100A2000EF933F932F931F930F930FB70F9300E80C
:100A30000BBB0BB11AB12CB10C7109F014C0169597
:100A4000117030912703333019F433273093270383
:100A50002F3F49F0F3E0E4E230912703E30F2083D6
:100A600033953093270300270BBB0F910FBF0F91D6
:0C0A70001F912F913F91EF91FF9118957D
:020000001BC023
:10002C00F8C40102040810204080000004E00EBF58
:10003C000FE50DBFCCD0DED40EEF00931E030027CE
:10004C0000931F0300271127F3E0E6E013950193BB
:10005C001831E1F7002700932A0318D003D031D0D0
:10006C003BD0FBCFF3E0E0E000910503043039F026
:10007C0064D0009104030FB9779BFECFF5CF66D007
:10008C00F3E0E0E000270093050308959DD0009174
:10009C001F03083109F40027A00F2D9120930003B2
:1000AC002D91209301032C912093020313E0010F57
:1000BC0000931F0308951127039513951330E1F74F
:1000CC00089500911E030F3709F00894001F009348
:1000DC001E0300930303089500912703033009F4D2
:1000EC0001D0089500912403003019F0013021F162
:1000FC0023C000912C0310912D030093280310931F
:10010C00290303E000932B03002700932A0333D029
:10011C00009125030093280300932C0300912603E0
:10012C000093290300932D0303E000932B0301E0BC
:10013C0000932A0320D000C008950191009304037A
:10014C00009105030395009305030895C49A0000DC
:10015C00C895C895C49808952F931F930F930027A3
:10016C002091280313E00395A10F0217E1F70F91DB
:10017C001F912F9108951FD027D0EEDF00912A03F5
:10018C00003049F010912B03A10F0C911091290311
:10019C00012B0C9308C010912B03A10F0C91109103
:1001AC00290301270C930895112700270395139514
:1001BC001330E1F7089500912903F0E0EEE2E00F2F
:1001CC000491009329030895B3E0A6E0089500EB91
:0801DC0007BB00E50DB9089511
:00000001FF
