:020000020000FC
:100A000010E00CE010BD09B900E90AB906E800BD24
:100A100002E00BB900270093270378940895FF9311
:100A2000EF933F932F931F930F930FB70F9300E80C
:100A30000BBB0BB11AB12CB10C7101F016951170F2
:100A400030912703333019F43327309327032F3F96
:100A500049F0F3E0E4E230912703E30F208333957C
:100A60003093270300270BBB0F910FBF0F911F91EE
:0A0A70002F913F91EF91FF9118952F
:020000001BC023
:10002C00F8C40001020408102040800004E00EBF58
:10003C000FE50DBFD5D0DED40EEF00931E030027C5
:10004C0000931F0300271127F3E0E6E013950193BB
:10005C001831E1F70027009320030093210300934C
:10006C002203009323038AD018D0F3E0E0E003D0FE
:10007C002FD039D0F9CF00910503043039F06FD06F
:10008C00009104030FB9779BFECFF5CF71D0F3E04D
:10009C00E0E00027009305030895B3E0A6E000918B
:1000AC001F03083109F40027A00F2D9120930003A2
:1000BC002D91209301032C912093020303D00093E4
:1000CC001F0308951127039513951330E1F7089535
:1000DC0000911E030F3709F00894001F00931E03B4
:1000EC0000930303089500912703033071F40091EA
:1000FC00280310912503011739F40091290310915D
:10010C002603001709F401C001D0089500912403BF
:10011C00003011F0013071F00091250300932003A1
:10012C0000270093210300932203009126030093E0
:10013C0023030BC00027009320030093220300939A
:10014C00230305E00093210300C0009125030093D5
:10015C002803009126030093290310D008950191E0
:10016C000093040300910503039500930503089580
:10017C00C49A0000C895C895C4980895B3E0A6E049
:10018C00D3E0C0E23881032F1127101729F03395E3
:10019C00339513951017C9F7F0E0EEE2A30F55272E
:1001AC0066277727AF93BF930D9150912103E50FED
:1001BC0054915027F0E0EEE20D9160912203E60F8E
:1001CC0064916027F0E0EEE20C9170912303E70F4D
:1001DC0074917027BF91AF915D936D937C9308954B
:0A01EC0000EB07BB00E50DB9089514
:00000001FF
