:020000020000FC
:100A000010E00CE010BD09B900E90AB906E800BD24
:100A100002E00BB900270093230378940895FF9315
:100A2000EF933F932F931F930F930FB70F9300E80C
:100A30000BBB0BB11AB12CB10C7109F014C0169597
:100A4000117030912303333019F43327309323038B
:100A50002F3F49F0F3E0E0E230912303E30F2083DE
:100A600033953093230300270BBB0F910FBF0F91DA
:0C0A70001F912F913F91EF91FF9118957D
:020000001BC023
:10002C00F8C40102040810204080000004E00EBF58
:10003C000FE50DBFEFD0DED40EEF00931E030027AB
:10004C0000931F0300271127F3E0E6E013950193BB
:10005C001831E1F700270093260318D003D031D0D4
:10006C003BD0FBCFF3E0E0E000910503043039F026
:10007C0087D0009104030FB9779BFECFF5CF89D0C1
:10008C00F3E0E0E00027009305030895C0D0009151
:10009C001F03083109F40027A00F2D9120930003B2
:1000AC002D91209301032C912093020313E0010F57
:1000BC0000931F0308951127039513951330E1F74F
:1000CC00089500911E030F3709F00894001F009348
:1000DC001E0300930303089500912303033009F4D6
:1000EC0001D0089500912003003019F0013021F166
:1000FC0046C00091290310912A0300932403109306
:10010C00250302E00093270300270093260356D013
:10011C0000912103009324030093290300912203EF
:10012C000093250300932A0302E00093270301E0C8
:10013C000093260343D023C000912B0310912C0372
:10014C00009324031093250300E00093270300275A
:10015C000093260333D000912103009324030093D2
:10016C002B03009122030093250300932C0300E042
:10017C000093270301E00093260320D000C00895CC
:10018C00019100930403009105030395009305036B
:10019C000895C49A0000C895C895C49808952F93E3
:1001AC001F930F9300272091240313E00395A10FB5
:1001BC000217E1F70F911F912F9108951FD027D0AF
:1001CC00EEDF00912603003049F010912703A10FB8
:1001DC000C9110912803012B0C9308C0109127034C
:1001EC00A10F0C911091280301270C93089511274E
:1001FC000027039513951330E1F70895009125031B
:10020C00F0E0EEE2E00F0491009328030895B3E0D0
:0E021C00A6E0089500EB07BB00E50DB90895BC
:00000001FF
