:020000020000FC
:100A000010E00CE010BD09B900E90AB906E800BD24
:100A100002E00BB900270093230378940895FF9315
:100A2000EF933F932F931F930F930FB70F9300E80C
:100A30000BBB0BB11AB12CB10C7109F014C0169597
:100A4000117030912303333019F43327309323038B
:100A50002F3F49F0F3E0E0E230912303E30F2083DE
:100A600033953093230300270BBB0F910FBF0F91DA
:0C0A70001F912F913F91EF91FF9118957D
:020000001BC023
:10002C00F8C40102040810204080000004E00EBF58
:10003C000FE50DBF5AD1DED45FD119D004D02CD02E
:10004C0036D028D1FACFF3E0E0E00091050304307C
:10005C0039F0B2D0009104030FB9779BFECFF5CFE6
:10006C00B4D0F3E0E0E000270093050308950CD131
:10007C0000911F03083109F40027A00F2D91209344
:10008C0000032D91209301032C912093020313E084
:10009C00010F00931F03089500911E030F3709F001
:1000AC000894001F00931E0300930303089500910E
:1000BC002303033009F401D008950091200300308C
:1000CC0049F0013049F0023049F0033049F0043076
:1000DC0049F00BC00BD009C026D007C04FD005C0CB
:1000EC003BD003C009D15CD000C00895D8D0EAD071
:1000FC000091210300932603009324030091220313
:10010C00009327030093250302E00093290301E0E9
:10011C000093280382D000E00093290301E00093B0
:10012C0028037BD00895BBD00091210300932603B4
:10013C000091220300932703C5D002E0009329030A
:10014C0001E00093280369D000E00093290301E04B
:10015C000093280362D00895A2D00091210300934C
:10016C002603009122030093270300E00093290348
:10017C0001E00093280351D0A5D0089590D00091B0
:10018C00210300932603009122030093270302E02E
:10019C000093290301E0009328033FD093D00895E6
:1001AC0000912103109122032227111F2395253042
:1001BC00E1F7012B0BBB089501910093040300910F
:1001CC0005030395009305030895C49A0000C89590
:1001DC00C895C49808952F931F930F9300272091CF
:1001EC00260313E0203021F00395A10F0217E1F74D
:1001FC000F911F912F9108952F931F930F93002709
:10020C002091260313E0203099F30395C10F0217B8
:10021C00E1F70F911F912F91089521D035D0DBDF9D
:10022C0000912803003049F010912903A10F0C9183
:10023C0010912A03012B0C930AC010912903A10FD2
:10024C000C9110912A0314D010F401270C930895EB
:10025C0011270027039513951330E1F708950091AA
:10026C002703F0E0EEE2E00F049100932A030895D7
:10027C000F931F93109127030795103011F01A95C7
:10028C00FBCF1F910F910895B3E0A6E00895D3E042
:10029C00CBE2089570E08AE00197F1F70895BF93DF
:1002AC00AF93DF93CF93F0DFF2DF95DFA5DF0991FA
:1002BC000D9309910D9308810C93CF91DF91AF9120
:1002CC00BF910895BF93AF93DF93CF93DDDFDFDF53
:1002DC0082DF92DF0D9109930D9109930C910883A4
:1002EC00CF91DF91AF91BF91089500EB07BB00E573
:1002FC000DB90FEF0ABB08950EEF00931E030027F4
:10030C0000931F030093280300271127BDDF1395CB
:10031C000D931831E1F700271127B9DF13950993D5
:06032C001831E1F708950D
:00000001FF
