:020000020000FC
:100000000C94020004E00EBF0FE50DBF0FEF0ABB1A
:100010000E944F000EEF00931E0300271127F3E00C
:10002000E6E0139501931831E1F733D010D0F3E0F7
:10003000E0E0002700930503009105030430A9F3D5
:100040001FD0009104030FB9779BFECFF5CF00912D
:100050001E03001F00930303B3E0A6E000911F03FB
:100060001127039513951330E1F7A00F0D9100931D
:1000700000030D91009301030D9100930203089575
:100080000191009304030091050303950093050378
:100090000895C49AC895C8950000C498089500EBC7
:0800A00007BB00E50DB908954E
:00000001FF
