:020000020000FC
:100000000C94020004E00EBF0FE50DBF0FEF0ABB1A
:100010000E9442000027009305030FEF00930003A6
:10002000009301030093020300E000930303F3E055
:10003000E0E0002700930503DF98E89400910503B2
:100040000430A9F307D000910403DF9A0FB9779B1E
:10005000FECFF2CF0F930FB70F93019100930403DC
:10006000009105030395009305030F910FBF0F91B6
:100070006894089522E03BE43A95F1F72A95E1F778
:100080000000089500EB07BB00E50DB900E00895FE
:00000001FF
