:020000020000FC
:040000000C94160046
:100028000C94380004E00EBF0FE50DBF0E9450008D
:100038000027009305030093040300930103009332
:10004800020300930303F3E0E1E0002700930503B4
:10005800E894009105030330B1F3A4E0B3E00C91F8
:100068000FB9B6F30C9435000F930FB70F930191A6
:1000780000930403009105030395009305030F9172
:100088000FBF0F916894189522E03BE43A95F1F779
:100098002A95E1F70000089500EB07BB01ED0DB9C3
:0600A80001E078940895C8
:00000001FF
